{
  "_format": "hh-sol-artifact-1",
  "contractName": "TicketResell",
  "sourceName": "contracts/TicketPay.sol",
  "abi": [
    {
      "inputs": [],
      "stateMutability": "nonpayable",
      "type": "constructor"
    },
    {
      "inputs": [
        {
          "internalType": "address",
          "name": "sender",
          "type": "address"
        },
        {
          "internalType": "uint256",
          "name": "tokenId",
          "type": "uint256"
        },
        {
          "internalType": "address",
          "name": "owner",
          "type": "address"
        }
      ],
      "name": "ERC721IncorrectOwner",
      "type": "error"
    },
    {
      "inputs": [
        {
          "internalType": "address",
          "name": "operator",
          "type": "address"
        },
        {
          "internalType": "uint256",
          "name": "tokenId",
          "type": "uint256"
        }
      ],
      "name": "ERC721InsufficientApproval",
      "type": "error"
    },
    {
      "inputs": [
        {
          "internalType": "address",
          "name": "approver",
          "type": "address"
        }
      ],
      "name": "ERC721InvalidApprover",
      "type": "error"
    },
    {
      "inputs": [
        {
          "internalType": "address",
          "name": "operator",
          "type": "address"
        }
      ],
      "name": "ERC721InvalidOperator",
      "type": "error"
    },
    {
      "inputs": [
        {
          "internalType": "address",
          "name": "owner",
          "type": "address"
        }
      ],
      "name": "ERC721InvalidOwner",
      "type": "error"
    },
    {
      "inputs": [
        {
          "internalType": "address",
          "name": "receiver",
          "type": "address"
        }
      ],
      "name": "ERC721InvalidReceiver",
      "type": "error"
    },
    {
      "inputs": [
        {
          "internalType": "address",
          "name": "sender",
          "type": "address"
        }
      ],
      "name": "ERC721InvalidSender",
      "type": "error"
    },
    {
      "inputs": [
        {
          "internalType": "uint256",
          "name": "tokenId",
          "type": "uint256"
        }
      ],
      "name": "ERC721NonexistentToken",
      "type": "error"
    },
    {
      "anonymous": false,
      "inputs": [
        {
          "indexed": true,
          "internalType": "address",
          "name": "owner",
          "type": "address"
        },
        {
          "indexed": true,
          "internalType": "address",
          "name": "approved",
          "type": "address"
        },
        {
          "indexed": true,
          "internalType": "uint256",
          "name": "tokenId",
          "type": "uint256"
        }
      ],
      "name": "Approval",
      "type": "event"
    },
    {
      "anonymous": false,
      "inputs": [
        {
          "indexed": true,
          "internalType": "address",
          "name": "owner",
          "type": "address"
        },
        {
          "indexed": true,
          "internalType": "address",
          "name": "operator",
          "type": "address"
        },
        {
          "indexed": false,
          "internalType": "bool",
          "name": "approved",
          "type": "bool"
        }
      ],
      "name": "ApprovalForAll",
      "type": "event"
    },
    {
      "anonymous": false,
      "inputs": [
        {
          "indexed": false,
          "internalType": "uint256",
          "name": "_fromTokenId",
          "type": "uint256"
        },
        {
          "indexed": false,
          "internalType": "uint256",
          "name": "_toTokenId",
          "type": "uint256"
        }
      ],
      "name": "BatchMetadataUpdate",
      "type": "event"
    },
    {
      "anonymous": false,
      "inputs": [
        {
          "indexed": false,
          "internalType": "uint256",
          "name": "_tokenId",
          "type": "uint256"
        }
      ],
      "name": "MetadataUpdate",
      "type": "event"
    },
    {
      "anonymous": false,
      "inputs": [
        {
          "indexed": true,
          "internalType": "uint256",
          "name": "tokenId",
          "type": "uint256"
        },
        {
          "indexed": false,
          "internalType": "uint256",
          "name": "price",
          "type": "uint256"
        },
        {
          "indexed": true,
          "internalType": "address",
          "name": "seller",
          "type": "address"
        }
      ],
      "name": "TicketListed",
      "type": "event"
    },
    {
      "anonymous": false,
      "inputs": [
        {
          "indexed": true,
          "internalType": "uint256",
          "name": "tokenId",
          "type": "uint256"
        },
        {
          "indexed": false,
          "internalType": "uint256",
          "name": "price",
          "type": "uint256"
        },
        {
          "indexed": true,
          "internalType": "address",
          "name": "buyer",
          "type": "address"
        }
      ],
      "name": "TicketPurchased",
      "type": "event"
    },
    {
      "anonymous": false,
      "inputs": [
        {
          "indexed": true,
          "internalType": "address",
          "name": "from",
          "type": "address"
        },
        {
          "indexed": true,
          "internalType": "address",
          "name": "to",
          "type": "address"
        },
        {
          "indexed": true,
          "internalType": "uint256",
          "name": "tokenId",
          "type": "uint256"
        }
      ],
      "name": "Transfer",
      "type": "event"
    },
    {
      "inputs": [
        {
          "internalType": "address",
          "name": "to",
          "type": "address"
        },
        {
          "internalType": "uint256",
          "name": "tokenId",
          "type": "uint256"
        }
      ],
      "name": "approve",
      "outputs": [],
      "stateMutability": "nonpayable",
      "type": "function"
    },
    {
      "inputs": [
        {
          "internalType": "address",
          "name": "owner",
          "type": "address"
        }
      ],
      "name": "balanceOf",
      "outputs": [
        {
          "internalType": "uint256",
          "name": "",
          "type": "uint256"
        }
      ],
      "stateMutability": "view",
      "type": "function"
    },
    {
      "inputs": [
        {
          "internalType": "uint256",
          "name": "tokenId",
          "type": "uint256"
        }
      ],
      "name": "buyTicket",
      "outputs": [],
      "stateMutability": "payable",
      "type": "function"
    },
    {
      "inputs": [],
      "name": "getAllTickets",
      "outputs": [
        {
          "internalType": "uint256[]",
          "name": "",
          "type": "uint256[]"
        }
      ],
      "stateMutability": "view",
      "type": "function"
    },
    {
      "inputs": [
        {
          "internalType": "uint256",
          "name": "tokenId",
          "type": "uint256"
        }
      ],
      "name": "getApproved",
      "outputs": [
        {
          "internalType": "address",
          "name": "",
          "type": "address"
        }
      ],
      "stateMutability": "view",
      "type": "function"
    },
    {
      "inputs": [
        {
          "internalType": "uint256",
          "name": "tokenId",
          "type": "uint256"
        }
      ],
      "name": "getPrice",
      "outputs": [
        {
          "internalType": "uint256",
          "name": "",
          "type": "uint256"
        }
      ],
      "stateMutability": "view",
      "type": "function"
    },
    {
      "inputs": [
        {
          "internalType": "address",
          "name": "owner",
          "type": "address"
        },
        {
          "internalType": "address",
          "name": "operator",
          "type": "address"
        }
      ],
      "name": "isApprovedForAll",
      "outputs": [
        {
          "internalType": "bool",
          "name": "",
          "type": "bool"
        }
      ],
      "stateMutability": "view",
      "type": "function"
    },
    {
      "inputs": [
        {
          "internalType": "uint256",
          "name": "tokenId",
          "type": "uint256"
        }
      ],
      "name": "isListed",
      "outputs": [
        {
          "internalType": "bool",
          "name": "",
          "type": "bool"
        }
      ],
      "stateMutability": "view",
      "type": "function"
    },
    {
      "inputs": [
        {
          "internalType": "string",
          "name": "metadataURI",
          "type": "string"
        },
        {
          "internalType": "uint256",
          "name": "price",
          "type": "uint256"
        }
      ],
      "name": "listTicket",
      "outputs": [],
      "stateMutability": "nonpayable",
      "type": "function"
    },
    {
      "inputs": [],
      "name": "name",
      "outputs": [
        {
          "internalType": "string",
          "name": "",
          "type": "string"
        }
      ],
      "stateMutability": "view",
      "type": "function"
    },
    {
      "inputs": [
        {
          "internalType": "uint256",
          "name": "tokenId",
          "type": "uint256"
        }
      ],
      "name": "ownerOf",
      "outputs": [
        {
          "internalType": "address",
          "name": "",
          "type": "address"
        }
      ],
      "stateMutability": "view",
      "type": "function"
    },
    {
      "inputs": [
        {
          "internalType": "uint256",
          "name": "",
          "type": "uint256"
        }
      ],
      "name": "resaleTickets",
      "outputs": [
        {
          "internalType": "bool",
          "name": "onSale",
          "type": "bool"
        },
        {
          "internalType": "uint256",
          "name": "price",
          "type": "uint256"
        },
        {
          "internalType": "address",
          "name": "seller",
          "type": "address"
        }
      ],
      "stateMutability": "view",
      "type": "function"
    },
    {
      "inputs": [
        {
          "internalType": "address",
          "name": "from",
          "type": "address"
        },
        {
          "internalType": "address",
          "name": "to",
          "type": "address"
        },
        {
          "internalType": "uint256",
          "name": "tokenId",
          "type": "uint256"
        }
      ],
      "name": "safeTransferFrom",
      "outputs": [],
      "stateMutability": "nonpayable",
      "type": "function"
    },
    {
      "inputs": [
        {
          "internalType": "address",
          "name": "from",
          "type": "address"
        },
        {
          "internalType": "address",
          "name": "to",
          "type": "address"
        },
        {
          "internalType": "uint256",
          "name": "tokenId",
          "type": "uint256"
        },
        {
          "internalType": "bytes",
          "name": "data",
          "type": "bytes"
        }
      ],
      "name": "safeTransferFrom",
      "outputs": [],
      "stateMutability": "nonpayable",
      "type": "function"
    },
    {
      "inputs": [
        {
          "internalType": "address",
          "name": "operator",
          "type": "address"
        },
        {
          "internalType": "bool",
          "name": "approved",
          "type": "bool"
        }
      ],
      "name": "setApprovalForAll",
      "outputs": [],
      "stateMutability": "nonpayable",
      "type": "function"
    },
    {
      "inputs": [
        {
          "internalType": "bytes4",
          "name": "interfaceId",
          "type": "bytes4"
        }
      ],
      "name": "supportsInterface",
      "outputs": [
        {
          "internalType": "bool",
          "name": "",
          "type": "bool"
        }
      ],
      "stateMutability": "view",
      "type": "function"
    },
    {
      "inputs": [],
      "name": "symbol",
      "outputs": [
        {
          "internalType": "string",
          "name": "",
          "type": "string"
        }
      ],
      "stateMutability": "view",
      "type": "function"
    },
    {
      "inputs": [],
      "name": "ticketId",
      "outputs": [
        {
          "internalType": "uint256",
          "name": "",
          "type": "uint256"
        }
      ],
      "stateMutability": "view",
      "type": "function"
    },
    {
      "inputs": [
        {
          "internalType": "uint256",
          "name": "tokenId",
          "type": "uint256"
        }
      ],
      "name": "tokenURI",
      "outputs": [
        {
          "internalType": "string",
          "name": "",
          "type": "string"
        }
      ],
      "stateMutability": "view",
      "type": "function"
    },
    {
      "inputs": [
        {
          "internalType": "address",
          "name": "from",
          "type": "address"
        },
        {
          "internalType": "address",
          "name": "to",
          "type": "address"
        },
        {
          "internalType": "uint256",
          "name": "tokenId",
          "type": "uint256"
        }
      ],
      "name": "transferFrom",
      "outputs": [],
      "stateMutability": "nonpayable",
      "type": "function"
    }
  ],
  "bytecode": "0x608060405234801561001057600080fd5b506040518060400160405280600c81526020017f5469636b6574526573656c6c00000000000000000000000000000000000000008152506040518060400160405280600381526020017f5449430000000000000000000000000000000000000000000000000000000000815250816000908161008c91906102f4565b50806001908161009c91906102f4565b5050506103c6565b600081519050919050565b7f4e487b7100000000000000000000000000000000000000000000000000000000600052604160045260246000fd5b7f4e487b7100000000000000000000000000000000000000000000000000000000600052602260045260246000fd5b6000600282049050600182168061012557607f821691505b602082108103610138576101376100de565b5b50919050565b60008190508160005260206000209050919050565b60006020601f8301049050919050565b600082821b905092915050565b6000600883026101a07fffffffffffffffffffffffffffffffffffffffffffffffffffffffffffffffff82610163565b6101aa8683610163565b95508019841693508086168417925050509392505050565b6000819050919050565b6000819050919050565b60006101f16101ec6101e7846101c2565b6101cc565b6101c2565b9050919050565b6000819050919050565b61020b836101d6565b61021f610217826101f8565b848454610170565b825550505050565b600090565b610234610227565b61023f818484610202565b505050565b5b818110156102635761025860008261022c565b600181019050610245565b5050565b601f8211156102a8576102798161013e565b61028284610153565b81016020851015610291578190505b6102a561029d85610153565b830182610244565b50505b505050565b600082821c905092915050565b60006102cb600019846008026102ad565b1980831691505092915050565b60006102e483836102ba565b9150826002028217905092915050565b6102fd826100a4565b67ffffffffffffffff811115610316576103156100af565b5b610320825461010d565b61032b828285610267565b600060209050601f83116001811461035e576000841561034c578287015190505b61035685826102d8565b8655506103be565b601f19841661036c8661013e565b60005b828110156103945784890151825560018201915060208501945060208101905061036f565b868310156103b157848901516103ad601f8916826102ba565b8355505b6001600288020188555050505b505050505050565b6130d0806103d56000396000f3fe60806040526004361061011f5760003560e01c806367dd74ca116100a0578063c87b56dd11610064578063c87b56dd146103ea578063e757223014610427578063e985e9c514610464578063f9f0164a146104a1578063fcce4883146104cc5761011f565b806367dd74ca1461031457806370a082311461033057806395d89b411461036d578063a22cb46514610398578063b88d4fde146103c15761011f565b806323b872dd116100e757806323b872dd1461021d57806342842e0e146102465780634c5a64a61461026f5780636352211e14610298578063675b2e74146102d55761011f565b806301ffc9a71461012457806303e96fe31461016157806306fdde031461018c578063081812fc146101b7578063095ea7b3146101f4575b600080fd5b34801561013057600080fd5b5061014b600480360381019061014691906120fa565b610509565b6040516101589190612142565b60405180910390f35b34801561016d57600080fd5b5061017661051b565b6040516101839190612225565b60405180910390f35b34801561019857600080fd5b506101a16105c3565b6040516101ae91906122d7565b60405180910390f35b3480156101c357600080fd5b506101de60048036038101906101d99190612325565b610655565b6040516101eb9190612393565b60405180910390f35b34801561020057600080fd5b5061021b600480360381019061021691906123da565b610671565b005b34801561022957600080fd5b50610244600480360381019061023f919061241a565b610687565b005b34801561025257600080fd5b5061026d6004803603810190610268919061241a565b610789565b005b34801561027b57600080fd5b50610296600480360381019061029191906125a2565b6107a9565b005b3480156102a457600080fd5b506102bf60048036038101906102ba9190612325565b61092e565b6040516102cc9190612393565b60405180910390f35b3480156102e157600080fd5b506102fc60048036038101906102f79190612325565b610940565b60405161030b9392919061260d565b60405180910390f35b61032e60048036038101906103299190612325565b610997565b005b34801561033c57600080fd5b5061035760048036038101906103529190612644565b610c09565b6040516103649190612671565b60405180910390f35b34801561037957600080fd5b50610382610cc3565b60405161038f91906122d7565b60405180910390f35b3480156103a457600080fd5b506103bf60048036038101906103ba91906126b8565b610d55565b005b3480156103cd57600080fd5b506103e860048036038101906103e39190612799565b610d6b565b005b3480156103f657600080fd5b50610411600480360381019061040c9190612325565b610d90565b60405161041e91906122d7565b60405180910390f35b34801561043357600080fd5b5061044e60048036038101906104499190612325565b610da2565b60405161045b9190612671565b60405180910390f35b34801561047057600080fd5b5061048b6004803603810190610486919061281c565b610dc2565b6040516104989190612142565b60405180910390f35b3480156104ad57600080fd5b506104b6610e56565b6040516104c39190612671565b60405180910390f35b3480156104d857600080fd5b506104f360048036038101906104ee9190612325565b610e5c565b6040516105009190612142565b60405180910390f35b600061051482610e89565b9050919050565b6060600060075467ffffffffffffffff81111561053b5761053a612477565b5b6040519080825280602002602001820160405280156105695781602001602082028036833780820191505090505b5090506000600190505b60075481116105bb57808260018361058b919061288b565b8151811061059c5761059b6128bf565b5b60200260200101818152505080806105b3906128ee565b915050610573565b508091505090565b6060600080546105d290612965565b80601f01602080910402602001604051908101604052809291908181526020018280546105fe90612965565b801561064b5780601f106106205761010080835404028352916020019161064b565b820191906000526020600020905b81548152906001019060200180831161062e57829003601f168201915b5050505050905090565b600061066082610eea565b5061066a82610f72565b9050919050565b610683828261067e610faf565b610fb7565b5050565b600073ffffffffffffffffffffffffffffffffffffffff168273ffffffffffffffffffffffffffffffffffffffff16036106f95760006040517f64a0ae920000000000000000000000000000000000000000000000000000000081526004016106f09190612393565b60405180910390fd5b600061070d8383610708610faf565b610fc9565b90508373ffffffffffffffffffffffffffffffffffffffff168173ffffffffffffffffffffffffffffffffffffffff1614610783578382826040517f64283d7b00000000000000000000000000000000000000000000000000000000815260040161077a93929190612996565b60405180910390fd5b50505050565b6107a483838360405180602001604052806000815250610d6b565b505050565b600081116107ec576040517f08c379a00000000000000000000000000000000000000000000000000000000081526004016107e390612a3f565b60405180910390fd5b600760008154809291906107ff906128ee565b91905055506000600754905061081533826111e3565b61081f8184611201565b60405180606001604052806001151581526020018381526020013373ffffffffffffffffffffffffffffffffffffffff168152506008600083815260200190815260200160002060008201518160000160006101000a81548160ff0219169083151502179055506020820151816001015560408201518160020160006101000a81548173ffffffffffffffffffffffffffffffffffffffff021916908373ffffffffffffffffffffffffffffffffffffffff1602179055509050503373ffffffffffffffffffffffffffffffffffffffff16817f5ddeb20641397a4006800e63273f4f75df6e6964e4456220df00032d3d160da7846040516109219190612671565b60405180910390a3505050565b600061093982610eea565b9050919050565b60086020528060005260406000206000915090508060000160009054906101000a900460ff16908060010154908060020160009054906101000a900473ffffffffffffffffffffffffffffffffffffffff16905083565b60006008600083815260200190815260200160002090508060000160009054906101000a900460ff166109ff576040517f08c379a00000000000000000000000000000000000000000000000000000000081526004016109f690612ad1565b60405180910390fd5b80600101543414610a45576040517f08c379a0000000000000000000000000000000000000000000000000000000008152600401610a3c90612b3d565b60405180910390fd5b60008160020160009054906101000a900473ffffffffffffffffffffffffffffffffffffffff1690503373ffffffffffffffffffffffffffffffffffffffff168173ffffffffffffffffffffffffffffffffffffffff1603610adc576040517f08c379a0000000000000000000000000000000000000000000000000000000008152600401610ad390612bcf565b60405180910390fd5b3073ffffffffffffffffffffffffffffffffffffffff16610afc84610655565b73ffffffffffffffffffffffffffffffffffffffff161480610b245750610b238130610dc2565b5b610b63576040517f08c379a0000000000000000000000000000000000000000000000000000000008152600401610b5a90612c61565b60405180910390fd5b610b6e81338561125d565b8073ffffffffffffffffffffffffffffffffffffffff166108fc349081150290604051600060405180830381858888f19350505050158015610bb4573d6000803e3d6000fd5b503373ffffffffffffffffffffffffffffffffffffffff16837f94c5953e15f54d38b82a662bdd5739fc91af3a23d3ef7e67269dfaeee71a813c34604051610bfc9190612671565b60405180910390a3505050565b60008073ffffffffffffffffffffffffffffffffffffffff168273ffffffffffffffffffffffffffffffffffffffff1603610c7c5760006040517f89c62b64000000000000000000000000000000000000000000000000000000008152600401610c739190612393565b60405180910390fd5b600360008373ffffffffffffffffffffffffffffffffffffffff1673ffffffffffffffffffffffffffffffffffffffff168152602001908152602001600020549050919050565b606060018054610cd290612965565b80601f0160208091040260200160405190810160405280929190818152602001828054610cfe90612965565b8015610d4b5780601f10610d2057610100808354040283529160200191610d4b565b820191906000526020600020905b815481529060010190602001808311610d2e57829003601f168201915b5050505050905090565b610d67610d60610faf565b83836113ca565b5050565b610d76848484610687565b610d8a610d81610faf565b85858585611539565b50505050565b6060610d9b826116ea565b9050919050565b600060086000838152602001908152602001600020600101549050919050565b6000600560008473ffffffffffffffffffffffffffffffffffffffff1673ffffffffffffffffffffffffffffffffffffffff16815260200190815260200160002060008373ffffffffffffffffffffffffffffffffffffffff1673ffffffffffffffffffffffffffffffffffffffff16815260200190815260200160002060009054906101000a900460ff16905092915050565b60075481565b60006008600083815260200190815260200160002060000160009054906101000a900460ff169050919050565b6000634906490660e01b7bffffffffffffffffffffffffffffffffffffffffffffffffffffffff1916827bffffffffffffffffffffffffffffffffffffffffffffffffffffffff19161480610ee35750610ee2826117fd565b5b9050919050565b600080610ef6836118df565b9050600073ffffffffffffffffffffffffffffffffffffffff168173ffffffffffffffffffffffffffffffffffffffff1603610f6957826040517f7e273289000000000000000000000000000000000000000000000000000000008152600401610f609190612671565b60405180910390fd5b80915050919050565b60006004600083815260200190815260200160002060009054906101000a900473ffffffffffffffffffffffffffffffffffffffff169050919050565b600033905090565b610fc4838383600161191c565b505050565b600080610fd5846118df565b9050600073ffffffffffffffffffffffffffffffffffffffff168373ffffffffffffffffffffffffffffffffffffffff161461101757611016818486611ae1565b5b600073ffffffffffffffffffffffffffffffffffffffff168173ffffffffffffffffffffffffffffffffffffffff16146110a85761105960008560008061191c565b6001600360008373ffffffffffffffffffffffffffffffffffffffff1673ffffffffffffffffffffffffffffffffffffffff168152602001908152602001600020600082825403925050819055505b600073ffffffffffffffffffffffffffffffffffffffff168573ffffffffffffffffffffffffffffffffffffffff161461112b576001600360008773ffffffffffffffffffffffffffffffffffffffff1673ffffffffffffffffffffffffffffffffffffffff168152602001908152602001600020600082825401925050819055505b846002600086815260200190815260200160002060006101000a81548173ffffffffffffffffffffffffffffffffffffffff021916908373ffffffffffffffffffffffffffffffffffffffff160217905550838573ffffffffffffffffffffffffffffffffffffffff168273ffffffffffffffffffffffffffffffffffffffff167fddf252ad1be2c89b69c2b068fc378daa952ba7f163c4a11628f55a4df523b3ef60405160405180910390a4809150509392505050565b6111fd828260405180602001604052806000815250611ba5565b5050565b806006600084815260200190815260200160002090816112219190612e2d565b507ff8e1a15aba9398e019f0b49df1a4fde98ee17ae345cb5f6b5e2c27f5033e8ce7826040516112519190612671565b60405180910390a15050565b600073ffffffffffffffffffffffffffffffffffffffff168273ffffffffffffffffffffffffffffffffffffffff16036112cf5760006040517f64a0ae920000000000000000000000000000000000000000000000000000000081526004016112c69190612393565b60405180910390fd5b60006112dd83836000610fc9565b9050600073ffffffffffffffffffffffffffffffffffffffff168173ffffffffffffffffffffffffffffffffffffffff160361135057816040517f7e2732890000000000000000000000000000000000000000000000000000000081526004016113479190612671565b60405180910390fd5b8373ffffffffffffffffffffffffffffffffffffffff168173ffffffffffffffffffffffffffffffffffffffff16146113c4578382826040517f64283d7b0000000000000000000000000000000000000000000000000000000081526004016113bb93929190612996565b60405180910390fd5b50505050565b600073ffffffffffffffffffffffffffffffffffffffff168273ffffffffffffffffffffffffffffffffffffffff160361143b57816040517f5b08ba180000000000000000000000000000000000000000000000000000000081526004016114329190612393565b60405180910390fd5b80600560008573ffffffffffffffffffffffffffffffffffffffff1673ffffffffffffffffffffffffffffffffffffffff16815260200190815260200160002060008473ffffffffffffffffffffffffffffffffffffffff1673ffffffffffffffffffffffffffffffffffffffff16815260200190815260200160002060006101000a81548160ff0219169083151502179055508173ffffffffffffffffffffffffffffffffffffffff168373ffffffffffffffffffffffffffffffffffffffff167f17307eab39ab6107e8899845ad3d59bd9653f200f220920489ca2b5937696c318360405161152c9190612142565b60405180910390a3505050565b60008373ffffffffffffffffffffffffffffffffffffffff163b11156116e3578273ffffffffffffffffffffffffffffffffffffffff1663150b7a02868685856040518563ffffffff1660e01b81526004016115989493929190612f54565b6020604051808303816000875af19250505080156115d457506040513d601f19601f820116820180604052508101906115d19190612fb5565b60015b611658573d8060008114611604576040519150601f19603f3d011682016040523d82523d6000602084013e611609565b606091505b50600081510361165057836040517f64a0ae920000000000000000000000000000000000000000000000000000000081526004016116479190612393565b60405180910390fd5b805181602001fd5b63150b7a0260e01b7bffffffffffffffffffffffffffffffffffffffffffffffffffffffff1916817bffffffffffffffffffffffffffffffffffffffffffffffffffffffff1916146116e157836040517f64a0ae920000000000000000000000000000000000000000000000000000000081526004016116d89190612393565b60405180910390fd5b505b5050505050565b60606116f582610eea565b50600060066000848152602001908152602001600020805461171690612965565b80601f016020809104026020016040519081016040528092919081815260200182805461174290612965565b801561178f5780601f106117645761010080835404028352916020019161178f565b820191906000526020600020905b81548152906001019060200180831161177257829003601f168201915b5050505050905060006117a0611bc9565b905060008151036117b55781925050506117f8565b6000825111156117ea5780826040516020016117d292919061301e565b604051602081830303815290604052925050506117f8565b6117f384611be0565b925050505b919050565b60007f80ac58cd000000000000000000000000000000000000000000000000000000007bffffffffffffffffffffffffffffffffffffffffffffffffffffffff1916827bffffffffffffffffffffffffffffffffffffffffffffffffffffffff191614806118c857507f5b5e139f000000000000000000000000000000000000000000000000000000007bffffffffffffffffffffffffffffffffffffffffffffffffffffffff1916827bffffffffffffffffffffffffffffffffffffffffffffffffffffffff1916145b806118d857506118d782611c49565b5b9050919050565b60006002600083815260200190815260200160002060009054906101000a900473ffffffffffffffffffffffffffffffffffffffff169050919050565b80806119555750600073ffffffffffffffffffffffffffffffffffffffff168273ffffffffffffffffffffffffffffffffffffffff1614155b15611a8957600061196584610eea565b9050600073ffffffffffffffffffffffffffffffffffffffff168373ffffffffffffffffffffffffffffffffffffffff16141580156119d057508273ffffffffffffffffffffffffffffffffffffffff168173ffffffffffffffffffffffffffffffffffffffff1614155b80156119e357506119e18184610dc2565b155b15611a2557826040517fa9fbf51f000000000000000000000000000000000000000000000000000000008152600401611a1c9190612393565b60405180910390fd5b8115611a8757838573ffffffffffffffffffffffffffffffffffffffff168273ffffffffffffffffffffffffffffffffffffffff167f8c5be1e5ebec7d5bd14f71427d1e84f3dd0314c0f7b2291e5b200ac8c7c3b92560405160405180910390a45b505b836004600085815260200190815260200160002060006101000a81548173ffffffffffffffffffffffffffffffffffffffff021916908373ffffffffffffffffffffffffffffffffffffffff16021790555050505050565b611aec838383611cb3565b611ba057600073ffffffffffffffffffffffffffffffffffffffff168373ffffffffffffffffffffffffffffffffffffffff1603611b6157806040517f7e273289000000000000000000000000000000000000000000000000000000008152600401611b589190612671565b60405180910390fd5b81816040517f177e802f000000000000000000000000000000000000000000000000000000008152600401611b97929190613042565b60405180910390fd5b505050565b611baf8383611d74565b611bc4611bba610faf565b6000858585611539565b505050565b606060405180602001604052806000815250905090565b6060611beb82610eea565b506000611bf6611bc9565b90506000815111611c165760405180602001604052806000815250611c41565b80611c2084611e6d565b604051602001611c3192919061301e565b6040516020818303038152906040525b915050919050565b60007f01ffc9a7000000000000000000000000000000000000000000000000000000007bffffffffffffffffffffffffffffffffffffffffffffffffffffffff1916827bffffffffffffffffffffffffffffffffffffffffffffffffffffffff1916149050919050565b60008073ffffffffffffffffffffffffffffffffffffffff168373ffffffffffffffffffffffffffffffffffffffff1614158015611d6b57508273ffffffffffffffffffffffffffffffffffffffff168473ffffffffffffffffffffffffffffffffffffffff161480611d2c5750611d2b8484610dc2565b5b80611d6a57508273ffffffffffffffffffffffffffffffffffffffff16611d5283610f72565b73ffffffffffffffffffffffffffffffffffffffff16145b5b90509392505050565b600073ffffffffffffffffffffffffffffffffffffffff168273ffffffffffffffffffffffffffffffffffffffff1603611de65760006040517f64a0ae92000000000000000000000000000000000000000000000000000000008152600401611ddd9190612393565b60405180910390fd5b6000611df483836000610fc9565b9050600073ffffffffffffffffffffffffffffffffffffffff168173ffffffffffffffffffffffffffffffffffffffff1614611e685760006040517f73c6ac6e000000000000000000000000000000000000000000000000000000008152600401611e5f9190612393565b60405180910390fd5b505050565b606060006001611e7c84611f3b565b01905060008167ffffffffffffffff811115611e9b57611e9a612477565b5b6040519080825280601f01601f191660200182016040528015611ecd5781602001600182028036833780820191505090505b509050600082602001820190505b600115611f30578080600190039150507f3031323334353637383961626364656600000000000000000000000000000000600a86061a8153600a8581611f2457611f2361306b565b5b04945060008503611edb575b819350505050919050565b600080600090507a184f03e93ff9f4daa797ed6e38ed64bf6a1f0100000000000000008310611f99577a184f03e93ff9f4daa797ed6e38ed64bf6a1f0100000000000000008381611f8f57611f8e61306b565b5b0492506040810190505b6d04ee2d6d415b85acef81000000008310611fd6576d04ee2d6d415b85acef81000000008381611fcc57611fcb61306b565b5b0492506020810190505b662386f26fc10000831061200557662386f26fc100008381611ffb57611ffa61306b565b5b0492506010810190505b6305f5e100831061202e576305f5e10083816120245761202361306b565b5b0492506008810190505b61271083106120535761271083816120495761204861306b565b5b0492506004810190505b60648310612076576064838161206c5761206b61306b565b5b0492506002810190505b600a8310612085576001810190505b80915050919050565b6000604051905090565b600080fd5b600080fd5b60007fffffffff0000000000000000000000000000000000000000000000000000000082169050919050565b6120d7816120a2565b81146120e257600080fd5b50565b6000813590506120f4816120ce565b92915050565b6000602082840312156121105761210f612098565b5b600061211e848285016120e5565b91505092915050565b60008115159050919050565b61213c81612127565b82525050565b60006020820190506121576000830184612133565b92915050565b600081519050919050565b600082825260208201905092915050565b6000819050602082019050919050565b6000819050919050565b61219c81612189565b82525050565b60006121ae8383612193565b60208301905092915050565b6000602082019050919050565b60006121d28261215d565b6121dc8185612168565b93506121e783612179565b8060005b838110156122185781516121ff88826121a2565b975061220a836121ba565b9250506001810190506121eb565b5085935050505092915050565b6000602082019050818103600083015261223f81846121c7565b905092915050565b600081519050919050565b600082825260208201905092915050565b60005b83811015612281578082015181840152602081019050612266565b60008484015250505050565b6000601f19601f8301169050919050565b60006122a982612247565b6122b38185612252565b93506122c3818560208601612263565b6122cc8161228d565b840191505092915050565b600060208201905081810360008301526122f1818461229e565b905092915050565b61230281612189565b811461230d57600080fd5b50565b60008135905061231f816122f9565b92915050565b60006020828403121561233b5761233a612098565b5b600061234984828501612310565b91505092915050565b600073ffffffffffffffffffffffffffffffffffffffff82169050919050565b600061237d82612352565b9050919050565b61238d81612372565b82525050565b60006020820190506123a86000830184612384565b92915050565b6123b781612372565b81146123c257600080fd5b50565b6000813590506123d4816123ae565b92915050565b600080604083850312156123f1576123f0612098565b5b60006123ff858286016123c5565b925050602061241085828601612310565b9150509250929050565b60008060006060848603121561243357612432612098565b5b6000612441868287016123c5565b9350506020612452868287016123c5565b925050604061246386828701612310565b9150509250925092565b600080fd5b600080fd5b7f4e487b7100000000000000000000000000000000000000000000000000000000600052604160045260246000fd5b6124af8261228d565b810181811067ffffffffffffffff821117156124ce576124cd612477565b5b80604052505050565b60006124e161208e565b90506124ed82826124a6565b919050565b600067ffffffffffffffff82111561250d5761250c612477565b5b6125168261228d565b9050602081019050919050565b82818337600083830152505050565b6000612545612540846124f2565b6124d7565b90508281526020810184848401111561256157612560612472565b5b61256c848285612523565b509392505050565b600082601f8301126125895761258861246d565b5b8135612599848260208601612532565b91505092915050565b600080604083850312156125b9576125b8612098565b5b600083013567ffffffffffffffff8111156125d7576125d661209d565b5b6125e385828601612574565b92505060206125f485828601612310565b9150509250929050565b61260781612189565b82525050565b60006060820190506126226000830186612133565b61262f60208301856125fe565b61263c6040830184612384565b949350505050565b60006020828403121561265a57612659612098565b5b6000612668848285016123c5565b91505092915050565b600060208201905061268660008301846125fe565b92915050565b61269581612127565b81146126a057600080fd5b50565b6000813590506126b28161268c565b92915050565b600080604083850312156126cf576126ce612098565b5b60006126dd858286016123c5565b92505060206126ee858286016126a3565b9150509250929050565b600067ffffffffffffffff82111561271357612712612477565b5b61271c8261228d565b9050602081019050919050565b600061273c612737846126f8565b6124d7565b90508281526020810184848401111561275857612757612472565b5b612763848285612523565b509392505050565b600082601f8301126127805761277f61246d565b5b8135612790848260208601612729565b91505092915050565b600080600080608085870312156127b3576127b2612098565b5b60006127c1878288016123c5565b94505060206127d2878288016123c5565b93505060406127e387828801612310565b925050606085013567ffffffffffffffff8111156128045761280361209d565b5b6128108782880161276b565b91505092959194509250565b6000806040838503121561283357612832612098565b5b6000612841858286016123c5565b9250506020612852858286016123c5565b9150509250929050565b7f4e487b7100000000000000000000000000000000000000000000000000000000600052601160045260246000fd5b600061289682612189565b91506128a183612189565b92508282039050818111156128b9576128b861285c565b5b92915050565b7f4e487b7100000000000000000000000000000000000000000000000000000000600052603260045260246000fd5b60006128f982612189565b91507fffffffffffffffffffffffffffffffffffffffffffffffffffffffffffffffff820361292b5761292a61285c565b5b600182019050919050565b7f4e487b7100000000000000000000000000000000000000000000000000000000600052602260045260246000fd5b6000600282049050600182168061297d57607f821691505b6020821081036129905761298f612936565b5b50919050565b60006060820190506129ab6000830186612384565b6129b860208301856125fe565b6129c56040830184612384565b949350505050565b7f5469636b6574526573656c6c3a207072696365206d757374206265206772656160008201527f746572207468616e203000000000000000000000000000000000000000000000602082015250565b6000612a29602a83612252565b9150612a34826129cd565b604082019050919050565b60006020820190508181036000830152612a5881612a1c565b9050919050565b7f5469636b6574526573656c6c3a207469636b6574206973206e6f74206f6e207360008201527f616c650000000000000000000000000000000000000000000000000000000000602082015250565b6000612abb602383612252565b9150612ac682612a5f565b604082019050919050565b60006020820190508181036000830152612aea81612aae565b9050919050565b7f5469636b6574526573656c6c3a20696e636f7272656374207072696365000000600082015250565b6000612b27601d83612252565b9150612b3282612af1565b602082019050919050565b60006020820190508181036000830152612b5681612b1a565b9050919050565b7f5469636b6574526573656c6c3a2043616e6e6f742062757920796f7572206f7760008201527f6e207469636b6574000000000000000000000000000000000000000000000000602082015250565b6000612bb9602883612252565b9150612bc482612b5d565b604082019050919050565b60006020820190508181036000830152612be881612bac565b9050919050565b7f5469636b6574526573656c6c3a20436f6e7472616374206973206e6f7420617060008201527f70726f76656420746f207472616e736665722074686973207469636b65740000602082015250565b6000612c4b603e83612252565b9150612c5682612bef565b604082019050919050565b60006020820190508181036000830152612c7a81612c3e565b9050919050565b60008190508160005260206000209050919050565b60006020601f8301049050919050565b600082821b905092915050565b600060088302612ce37fffffffffffffffffffffffffffffffffffffffffffffffffffffffffffffffff82612ca6565b612ced8683612ca6565b95508019841693508086168417925050509392505050565b6000819050919050565b6000612d2a612d25612d2084612189565b612d05565b612189565b9050919050565b6000819050919050565b612d4483612d0f565b612d58612d5082612d31565b848454612cb3565b825550505050565b600090565b612d6d612d60565b612d78818484612d3b565b505050565b5b81811015612d9c57612d91600082612d65565b600181019050612d7e565b5050565b601f821115612de157612db281612c81565b612dbb84612c96565b81016020851015612dca578190505b612dde612dd685612c96565b830182612d7d565b50505b505050565b600082821c905092915050565b6000612e0460001984600802612de6565b1980831691505092915050565b6000612e1d8383612df3565b9150826002028217905092915050565b612e3682612247565b67ffffffffffffffff811115612e4f57612e4e612477565b5b612e598254612965565b612e64828285612da0565b600060209050601f831160018114612e975760008415612e85578287015190505b612e8f8582612e11565b865550612ef7565b601f198416612ea586612c81565b60005b82811015612ecd57848901518255600182019150602085019450602081019050612ea8565b86831015612eea5784890151612ee6601f891682612df3565b8355505b6001600288020188555050505b505050505050565b600081519050919050565b600082825260208201905092915050565b6000612f2682612eff565b612f308185612f0a565b9350612f40818560208601612263565b612f498161228d565b840191505092915050565b6000608082019050612f696000830187612384565b612f766020830186612384565b612f8360408301856125fe565b8181036060830152612f958184612f1b565b905095945050505050565b600081519050612faf816120ce565b92915050565b600060208284031215612fcb57612fca612098565b5b6000612fd984828501612fa0565b91505092915050565b600081905092915050565b6000612ff882612247565b6130028185612fe2565b9350613012818560208601612263565b80840191505092915050565b600061302a8285612fed565b91506130368284612fed565b91508190509392505050565b60006040820190506130576000830185612384565b61306460208301846125fe565b9392505050565b7f4e487b7100000000000000000000000000000000000000000000000000000000600052601260045260246000fdfea26469706673582212208ad042e71bc587e46585d2dd40cbf04eda10b4c93eec9ff0473202a8b7d7435964736f6c634300081c0033",
  "linkReferences": {},
  "deployedLinkReferences": {}
}